:020000040000fa
:080000000002040000000000f2
:020000040000fa
:10000800580b0000580b0000580b0000580b00005c
:10001800580b0000580b0000580b0000580b00004c
:10002800580b0000ea030000580b0000d202000041
:10003800580b000092040000580b0000ce08000086
:1000480088030000580b0000580b0000221800001d
:10005800580b000076080000580b0000580b0000f1
:10006800580b0000580b0000580b0000580b0000fc
:10007800580b000098080000580b0000580b0000af
:10008800580b0000580b0000580b0000580b0000dc
:10009800580b0000580b0000580b0000580b0000cc
:1000a800580b0000580b0000580b0000580b0000bc
:1000b800580b000056050000580b0000580b0000b4
:1000c800580b0000580b0000580b0000580b00009c
:1000d800580b0000580b0000580b0000580b00008c
:1000e800580b0000580b0000580b0000580b00007c
:1000f800b6100000580b0000580b0000580b000009
:10010800580b0000580b0000580b0000580b00005b
:10011800580b0000580b0000580b0000580b00004b
:10012800580b0000580b0000580b0000580b00003b
:10013800580b0000580b0000580b0000580b00002b
:10014800580b0000580b0000580b0000580b00001b
:10015800580b0000580b0000580b0000580b00000b
:10016800580b0000580b0000580b0000580b0000fb
:10017800580b0000580b0000580b0000580b0000eb
:10018800580b0000580b0000580b0000580b0000db
:10019800580b0000580b00006a220000580b0000a2
:1001a800580b0000580b0000580b0000580b0000bb
:1001b800580b0000580b0000580b0000580b0000ab
:1001c800580b0000580b0000580b0000580b00009b
:1001d800580b0000580b0000580b0000580b00008b
:1001e800580b0000580b0000580b0000580b00007b
:1001f800580b0000580b0000580b0000580b00006b
:10020800580b0000580b0000580b0000580b00005a
:10021800580b0000580b0000580b0000580b00004a
:10022800580b0000580b0000580b0000580b00003a
:10023800580b0000580b0000580b0000580b00002a
:10024800580b0000580b0000580b0000580b00001a
:10025800580b0000580b0000580b0000580b00000a
:10026800580b0000580b0000580b0000580b0000fa
:0c027800580b0000580b0000580b000051
:020000040000fa
:10040000af3121000eff24000e0188000000000023
:10041000000020000000e000020032000001200087
:10042000200288000c0007008072220001002000da
:100430000f000700000020000000e0000200320072
:100440000000020000000000c42a020000000000ba
:100450000040da000000fe00c00020000000e000c4
:1004600002003200002020009001880000000600f9
:10047000a1028800800078000000eb001a0037001d
:10048000e280400054a0b4009101ba00e280400034
:1004900054a0b4009102ba00e280400054a0b4001d
:1004a0000002eb00472bde00f507b200a601880032
:1004b000602ce10008003a000049eb000201e8006e
:1004c000020039003420ec0002f0a0008301e900b2
:1004d000f9ff3e00040037006128e100010032000e
:1004e0000082eb00040007001101ba000200e000e6
:1004f000e3ff3a000000060004d0a300e20f490029
:100500001c003900810278003549ba000201e80078
:10051000020039003420ec0002f0a0008301e90061
:100520000f0032002549ba000201e800020039003c
:100530003420ec0002f0a0008301e9000800320042
:100540000400e0000600320015c9ba000201e8000c
:10055000020039003420ec0002f0a0008301e90021
:100560008180e80054a0b4000300e000e2ff3a00fc
:10057000000006009102ba00055978008301e900e5
:10058000f7ff3200c82ade00055978008301e90030
:10059000f3ff32000400e000f1ff320011d9ba008d
:1005a000eeff37003600f800809fbe00829fbe003d
:1005b000849fbe00869fbe000000fa000068a9006c
:1005c00004988000e10f520007003a000592800075
:1005d000840c2000848f520003003c001400200093
:1005e000949888000800370005928000840c200051
:1005f000848f5200040034000002eb00049888004d
:100600004406200094988800149380000402e800b7
:10061000149388001593800094988000848f520072
:10062000230039000002eb00149388000426210007
:1006300014427800e04f520010003a008498800085
:100640008402780004968000848f520003003100f9
:10065000849880004406b0008498880084988000c4
:100660008402780004968000848f520010003900c4
:1006700004968000849888000d00370085988000db
:10068000840c2000848f520009003400849880007c
:100690004406b1008498880085988000840c20006e
:1006a000848f520002003c00840c20008498880053
:1006b000a2010700b49080000402e800b490880012
:1006c000b590800084022000848f5200080036001c
:1006d0000426210014427800e04f520002003a0044
:1006e0000002eb000492880084022000b49088008d
:1006f0001a0207000080fa004f03be004f02be003e
:100700004f01be004f00be003600f9000040060059
:10071000849fbe00869fbe000000fa000108a90069
:10072000740880006123b800c4928000d5928000d4
:100730000602420087824a00c4928800d59288004f
:100740000080fa004f03be004f02be0000400600ca
:100750000000fa00947080004322de0061426200d3
:100760008482fb00947080004222de0061426200bd
:100770000482fb00040242008482420094708000e4
:100780000402d100614262000482fb004222dd00cb
:100790000482420094918800959180008430210069
:1007a00004824200144278000402fb00a4918800f5
:1007b000a4918000e10f420002003a00b491800051
:1007c000a4918800a4918000040078000080fa00c1
:1007d000000006003600f800809fbe00829fbe0029
:1007e000849fbe00869fbe000200fa000028a90078
:1007f000d7ff070000027800040f78009e027800ff
:10080000b4918000848f52003f003200a491800098
:10081000e10f42003c003200a43021001442780075
:100820000402fb009e0f520005003200d43021006c
:10083000144278000402fb009e0f520017003a0099
:100840000042eb0004437800652f2100864a7800bf
:10085000442b21001442780070426200e04f5200a5
:1008600007003a0074928000859280006102420085
:10087000e0824a0074928800859288001d0037004b
:10088000749280008592800061025200e0825a00da
:1008900074928800859288001600370014c0b30057
:1008a00004437800652f2100864a7800442b2100fc
:1008b0001442780070426200e04f520007003a0094
:1008c000749280008592800061025200e0825a009a
:1008d0007492880085928800060037007492800028
:1008e0008592800061024200e0824a007492880092
:1008f000859288001e02780004007800bf0007007f
:100900001e027800b49188000080fa004f03be00f8
:100910004f02be004f01be004f00be003600f9007e
:10092000004006003600f800809fbe00829fbe0097
:10093000849fbe00869fbe000200fa0000a8a900a6
:1009400083ff070000027800040f78009e02780001
:10095000b4918000848f52004d003200a491800039
:10096000e10f42004a00320013e1a9005408800060
:100970006123b800c4928000d59280000602420034
:1009800087824a00c4928800d59288000002eb005a
:100990005408880013e1a80014002000b4928800d5
:1009a000b4302100144278000402fb009e0f520074
:1009b00005003200c4302100144278000402fb001c
:1009c0009e0f520017003a000042eb0004437800eb
:1009d000652f2100864a7800442b210014427800bc
:1009e00070426200e04f520007003a0074928000ab
:1009f0008592800061024200e0824a007492880081
:100a0000859288001d0037007492800085928000d6
:100a100061025200e0825a00749288008592880038
:100a20001600370014c0b30004437800652f21007e
:100a3000864a7800442b21001442780070426200fc
:100a4000e04f520007003a007492800085928000c7
:100a500061025200e0825a007492880085928800f8
:100a60000600370074928000859280006102420087
:100a7000e0824a0074928800859288001e02780005
:100a8000040078005d0007001e027800b491880021
:100a90000080fa004f03be004f02be004f01be00af
:100aa0004f00be003600f900004006003600f80096
:100ab000809fbe00829fbe00849fbe00869fbe00b6
:100ac0000200fa0004a8a90021ff07000002780034
:100ad000040f78009e027800b4918000848f520049
:100ae0003f003200a4918000e10f42003c00320040
:100af00094302100144278000402fb009e0f520043
:100b000005003200e4302100144278000402fb00aa
:100b10009e0f520017003a000042eb000443780099
:100b2000652f2100864a7800442b2100144278006a
:100b300070426200e04f520007003a007492800059
:100b40008592800061024200e0824a00749288002f
:100b5000859288001d003700749280008592800085
:100b600061025200e0825a007492880085928800e7
:100b70001600370014c0b30004437800652f21002d
:100b8000864a7800442b21001442780070426200ab
:100b9000e04f520007003a00749280008592800076
:100ba00061025200e0825a007492880085928800a7
:100bb0000600370074928000859280006102420036
:100bc000e0824a0074928800859288001e027800b4
:100bd00004007800090007001e027800b491880024
:100be0000080fa004f03be004f02be004f01be005e
:100bf0004f00be003600f900004006000200fa0077
:100c0000000f7800c416200024988800e493220086
:100c10003498880034928000e00f520004003500c0
:100c2000742f210014427800e04f52000700320078
:100c300034928000e00f52001a003d00742f210012
:100c400014427800e14f520016003a001e0278006c
:100c50000500200066002000472521001100090042
:100c600046aad800810b7800000278009492880090
:100c7000a492800084024200e40829000482420019
:100c800094027800249880000482420064918800d5
:100c90006491800074918800240020008491880071
:100ca0002400370034928000e00f52000400350029
:100cb000742f210014427800e14f520007003200e7
:100cc00034928000e00f52001a003d00742f210082
:100cd00014427800e04f520016003a009e0278005d
:100ce00063824200050020006600200047252100a5
:100cf0001100090046aad800810b78000002780094
:100d000094928800a492800084024200e4082900a2
:100d100004824200940278003498800004824200e9
:100d20006491880064918000749188001400200010
:100d3000849188000080fa00000006000000fa009c
:100d40002200f8002400f8002600f800b492800089
:100d5000e00f52000b003200c4928000d592800058
:100d6000c4918800d59188006022b800c4928800a0
:100d7000d59288000002eb00b49288000002eb00dc
:100d8000b4908800c6918000d7918000f40f2000b5
:100d900005002000840f5300858f5b0005003e0096
:100da0000410200005002000c4918800d59188001f
:100db0000b003700c6918000d791800074032a0091
:100dc00005002000840f5300858f5b00040036006f
:100dd00074032a0005002000c4918800d591880082
:100de000c6918000d791800094908000a5908000eb
:100df0000403530085835b004492800005002000bb
:100e000084b8b90086a9b9008200780001004000ca
:100e100006037800040278000432b80005004000a0
:100e2000800278005692800067928000040243009e
:100e300085824b005492880065928800549280000d
:100e400065928000412bdd004f22de00040273001a
:100e5000cf2ade0094908800a590880094908000ae
:100e6000a590800004037800d4ad2400f501200093
:100e70001100090046aad8000002780004928800f8
:100e8000049280001492880094908000a5908000c5
:100e90000403780004802500b5012000110009003a
:100ea00046aad80000027800e492880005928000eb
:100eb000c4032000110009008402d8000002780059
:100ec000cfa2de000400be005e0207000002be00ea
:100ed00002002000030824000400be00af02070047
:100ee0000002be0002002000433b24000400be00bc
:100ef000aa0207000002be0002002000a34724004f
:100f00000400be00ec0107000002be000400be00a9
:100f10002b0207000002be0084027800640b200050
:100f20001301c0000400cc0084908800742f2100bd
:100f300014427800e14f520003003a008490800090
:100f40000402ea00849088002600f9002400f900d9
:100f50002200f9000080fa00000006000000fa00fc
:100f60008498800034918800049280004491880025
:100f70006497800014918800649780000402ea005e
:100f80002491880080212100400e0700442f210079
:100f90001442780068426200e04f520002003200c2
:100fa00054918000349288000080fa00000006000e
:100fb0000000fa000002eb00b49288006022b80042
:100fc000c4928800d59288000002eb000492880049
:100fd000840c2000849888000002eb008490880034
:100fe0000002eb003492880074032a000500200000
:100ff000c4918800d591880074032a000500200060
:1010000094908800a5908800047d20004492880078
:1010100004002800b50125005492880065928800dc
:1010200094908000a590800004037800048025003f
:10103000b50120001100090046aad800000278007e
:10104000e49288000002eb00949288000002eb001a
:10105000a4928800947080004322de006142620006
:101060008482fb00947080004222de0061426200b4
:101070000482fb00040242008482420094708000db
:101080000402d100614262000482fb004222dd00c2
:101090000482420094918800959180008430210060
:1010a00004824200144278000402fb00a4918800ec
:1010b000a4918000b4918800a4918000040078007d
:1010c000cefe07000003eb0085c72e008438210008
:1010d000f3ff2700c22b2000017122008021210094
:1010e0007f0d07000080fa00000006003600f800bf
:1010f000809fbe00829fbe00849fbe00869fbe0070
:101100000000fa0001a8a900041880008493880058
:10111000320007000080fa004f03be004f02be00fd
:101120004f01be004f00be003600f900004006002f
:10113000849fbe000000fa0002a8a9003495800038
:1011400054958800041a80003495880035958000f5
:1011500064302000848f52000600360055958000d0
:1011600064302000848f52000200360004eea80094
:101170000100370004eea900140020004495880007
:101180000080fa004f02be00004006000000fa0096
:10119000280f07000080fa00000006003600f80063
:1011a000809fbe00829fbe00849fbe00869fbe00bf
:1011b0000000fa0000e8a9006a00070054100700c8
:1011c0000080fa004f03be004f02be004f01be0078
:1011d0004f00be003600f900004006000000fa0093
:1011e000442621001442780061426200e04f520020
:1011f00023003a00849380006123b9004493800067
:10120000559380000602420087824a00449388007a
:1012100055938800349380000402e80034938800da
:101220003593800034062000848f52001f00340064
:101230003493800004037800449380005593800029
:101240001100090046aad8000002780064938800c3
:10125000649380000540200004825200040378005b
:1012600044ce2000050020001100090046aad80045
:1012700000027800749388006412a8000b00370005
:1012800084938000949388009593800064938000f9
:10129000848f520005003400959380006493800091
:1012a0000482520094938800020007000080fa0034
:1012b000000006000000fa00949380006123b9004a
:1012c000d4938000e59380000403530085835b0082
:1012d000a49380000500200084b8b90086a9b90055
:1012e00082007800010040000603780004027800c4
:1012f0000432b8000500400080027800b6938000f8
:10130000c79380000402430085824b00b493880099
:10131000c5938800b4938000c5938000412bdd0005
:101320004f22de0004027300cf2ade00d49388002f
:10133000e593880074938000cfa2de000403780058
:10134000d4938000e59380000402780084b2b90051
:10135000f4938800f4938000549788000080fa008a
:10136000000006000200fa000002eb00040f780003
:10137000f4938000f4948800f5948000c412200057
:10138000848f52003a003600f59480000495800066
:10139000048252001495880014958000e00f5200da
:1013a0001a003d0015958000e4ee2f00848f520056
:1013b00031003d00149580000402ea001495880075
:1013c00014958000cfa2de00361120001100090024
:1013d00046aad80000027800040f78002495800007
:1013e000e00f520006003200259580001e037800b1
:1013f000640b200084b2b900048252002495880056
:10140000f4948000049588001b0037001595800037
:1014100024112000848f520017003400149580009e
:10142000cfa2de00361120001100090046aad80024
:1014300000027800040f780025958000d45a22001d
:10144000848f520007003e009e027800640b20004b
:1014500084aab900840278002495800004824200a6
:1014600024958800f49480000495880002003700d9
:101470000002eb00249588000080fa0000000600be
:101480000000fa00020007000080fa0000000600d9
:101490000000fa000002eb00849388001400200092
:1014a0009493880064042000a4938800040028001a
:1014b00005002000b4938800c59388001400200024
:1014c00005002000d4938800e59388006022b800ce
:1014d00014948800259488000002eb00349488005e
:1014e0000002eb00449488000002eb00f4938800b3
:1014f0000002eb00f4948800c412200004958800d8
:101500000002eb00149588000002eb00249588008f
:10151000649780000003eb008002eb00f3ff2700dc
:1015200042382000812c2300a02821006c0c0700e9
:101530000080fa00000006000000fa000494800019
:10154000c4948800f4938000d49488006497800049
:10155000a49488000002eb00b4948800a028210025
:10156000ca0c0700442f2100144278007042620028
:10157000e04f520026003200e4948000349288004c
:101580005494800065948000f60f200006036200ea
:101590008721210097437800e0c3630006c37300ee
:1015a0008643780081212100874878004823de00a7
:1015b0009721210097437800e0c3630006c37300be
:1015c000864378009121210087487800f60f20009b
:1015d00006836200a721210097437800e0c36300df
:1015e00006c3730086437800a12121008748780054
:1015f000482ade00b521210095427800e0c2620051
:1016000004c2720084427800b1212100854878002c
:101610000080fa00000006000000fa009cff0700ae
:101620006412a9000002eb00649388000002eb0042
:10163000349388006022b800449388005593880052
:101640006b0d07000002eb003408880011e1a800d0
:1016500000e8a90020e8a800446180000402d1004d
:1016600034618800446280000402d1003462880042
:10167000446380000402d100346388000bc8a900d1
:101680002bc8a80001eca80021e3a800a0002000be
:101690009810070001eca90011e1a9000002eb007d
:1016a0003408880020e8a9000080fa000000060045
:1016b0000040da000000fe00889fbe008a9fbe0046
:1016c0008c1f78009d000700a400330003866c0087
:1016d0006450e1002e0032006420e100330032004b
:1016e0006150e1002f0032006120e1003100320042
:1016f00085855500eb07b000090020000804200094
:10170000050037000804440089844c000a003100b9
:101710000603430087834b000001530081815b0077
:10172000f8ff33000203be000800a00008044400d4
:1017300089844c00f6ff3900c639dd00830173004f
:1017400001003200130020008904d1000884d30076
:101750000998a300050032000800a7000300a000bc
:101760008904d1000884d3008b05e8008904d100e6
:101770000884d3000001eb000281d200340007008e
:1017800001f0a1000cf0a70001f0a0007c003700e0
:101790006420e1007e0032000801be000200be00ad
:1017a000f7ff37006120e100790032006000b800e7
:1017b000f3ff37000000200001f82700f0ff37009a
:1017c0000001be00480007000470a70003f0a1005c
:1017d0006509b100160032000d0035006828e100ef
:1017e00006003500f0ff2f00f1ff27000300e000a6
:1017f00013003b000100280000000500000040002d
:10180000818048008502e900fcff3a0008003700ab
:10181000f88f420002003c008000eb000000050051
:101820008100d1000080d3008502e800fcff3a006f
:101830000300e00002003b0060001000e0801800a0
:10184000000006004f89de0082017800d2013700d7
:1018500081002000618055000b003d000b0020003e
:1018600061fe2f000100e1001d0034008281710043
:10187000610164008904d1000884d3000000e800fd
:10188000faff3a007100200061006400030070005c
:10189000020060000900320061044400e0844c0052
:1018a0000988a500050032008b05e8006808e10002
:1018b00002003a008904d1000884d300f20f20000e
:1018c0000258e10005003d00c75ddd00f907b200e8
:1018d0008980750008007800000006000bf82700da
:1018e0008b00780000000500c70ade00f107b20097
:1018f000f50fb20008003200e1cf420002003200d2
:101900000170a00024000500810f7000010032006a
:101910000408050044000500810f700002003a0031
:10192000140005008502e9000000400081c0480065
:10193000fcff3b000170a000240005000004be0075
:10194000e9ff07000003be000405be000200be0060
:10195000e5ff0700844f7500000006000200be008e
:101960006450e100050036006420e100020036000a
:101970000968a30001003a000800be000160a00051
:101980004f0678004f05be004f04be000000060061
:10199000f0ff2f00f1ff2700f9ff3700889fbe00fe
:1019a0008a9fbe008c1f7800e4ff0700ebff330026
:1019b00003866c006450e100240032006420e100e2
:1019c000270032006150e100220032006120e10076
:1019d000210032008b854200eb07b1000134b800d2
:1019e000003ab8000804420089844a00013ab8006d
:1019f0000030b8008880400009014a00040033002c
:101a00000000400081804800020149008b05e90088
:101a1000c909dd00830170000100320013002000bd
:101a2000c814de004814dd004709de001200b200d1
:101a3000c808de000884700085ff070001f0a100df
:101a40000cf0a70001f0a000cdff37006120e100fd
:101a5000cfff32000801be000200be00f7ff3700d2
:101a60006150e100fcff3a00c9ff37006022b80076
:101a7000060220000000d0008180d2000482d20043
:101a80008582d2000000a0000202520083825a0028
:101a9000030031000202420083824a000000a100dc
:101aa0000603e900f3ff3a00000006000000fa0018
:101ab000889fbe008a9fbe003004be002005be0085
:101ac0000404440085844c0006054d0087854d00c4
:101ad0000898be000a90be000440e10005c8e1007d
:101ae00006d0e10007d8e1000200310068004000a4
:101af0001008e8004f05be004f04be000080fa0049
:101b0000000006001000fa00889fbe008a9fbe00f9
:101b10000605be000404be003002be002003be0065
:101b2000049fbe000697be0011002000080252006c
:101b300089825a000a035b008b835b00440798008c
:101b40005507980066079800770798000498be002c
:101b50000698be003e02be002e03be000820e10033
:101b600009a8e1000ab0e1000bb8e100010039006a
:101b70008000eb004f05be00108810004f04be002f
:101b80000080fa00000006001400fa00889fbe00e2
:101b90005b0007008a9fbe008c9fbe000006eb0022
:101ba0004c0798003c0798002c0798001c079800e9
:101bb0000c0f78000605be000404be000d042000d2
:101bc0004e039000be029000860343002e02900058
:101bd000e00f530003003d002a000700b3ff070099
:101be0000200370027000700c6ff0700ce02900062
:101bf000150f9800e08f52000900350045000700de
:101c000014002000050020006033b80000007200be
:101c10008180720002017300838173003800070025
:101c20000c06e8008d0f5600e5ff3a001e0a9000f2
:101c3000e00f520004003d000802be000a03be008f
:101c40000e00780099ff07004eba9700e00f52008f
:101c500006003a003e04be002e05be00580798005c
:101c6000690798007a0798000b0f98004f06be008e
:101c7000280007004f05be004f04be000080fa0098
:101c8000000006004f2bde00220007008683730051
:101c9000858242004f23de0047079800868272004b
:101ca00004024200350798009e0290004f2bde0090
:101cb0008582420006027200240798001e02780006
:101cc0004f23de000402420086827200150798004e
:101cd0004f18de00000f72000e0007000802be0061
:101ce0000a03be0000004000818048000201490054
:101cf00083814900020007000e0078000000060002
:101d0000500798006107980072079800030f980029
:101d1000000006005e009000ee0090007e01900042
:101d20008e099000000006000000fa00881f78006d
:101d300018002000881f780093ff07008f87e900b4
:101d40004f0478000080fa00000006000000fa004e
:101d5000801feb008cff07008f87e9000080fa00ee
:101d6000000006000000fa00889fbe008a9fbe00a7
:101d7000e00f5000e08f5800e00f5900e08f59004d
:101d80000c003d006044b8006055b80000005400ed
:101d900081805c0002015d0083815d0018002000ed
:101da0001600070008003d00190007000004eb00c2
:101db000050037000004eb001000070002003d00a2
:101dc0001300070018002000d7ff0700e00f5400a1
:101dd000060032006022b8006033b80000005200f4
:101de00081805a0002015b0083815b004f05be00c9
:101df0004f04be000080fa0000000600e00f520011
:101e0000e08f5a00e00f5b00e08f5b0000000600ef
:101e10006044b8006055b8000402540085825c003c
:101e200006035d0087835d00000006000000fa00e5
:101e3000889fbe008a9fbe008c1f7800e00f500074
:101e4000e08f5800e00f5900e08f59000d003d0071
:101e50006044b8006055b8001c0020000000540029
:101e600081805c0002015d0083815d000820e1004b
:101e700009a8e1000ab0e1000bb8e1000d003d0047
:101e8000080037000006eb00e00f5200e08f5a0018
:101e9000e00f5b00e08f5b0006003d006044b8008f
:101ea0006055b8000402540085825c0006035d00a2
:101eb00087835d00a5ff0700e00f56000600320093
:101ec0006022b8006033b8000000520081805a00e0
:101ed00002015b0083815b004f0678004f05be0066
:101ee0004f04be000080fa00000006000000fa0067
:101ef000889fbe008a9fbe008c1f78000006eb0002
:101f0000e00f5000e08f5800e00f5900e08f5900bb
:101f100007003d006044b8006055b8001c00200078
:101f20000000540081805c0002015d0083815d003f
:101f3000e00f5200e08f5a00e00f5b00e08f5b0083
:101f400007003d006044b8006055b8000c00a200d6
:101f50000402540085825c0006035d0087835d00f7
:101f60004c000700e00f5600060032006022b80067
:101f70006033b8000000520081805a0002015b000b
:101f800083815b004f0678004f05be004f04be0002
:101f90000080fa0000000600881f78000304780023
:101fa0000300e00007003d0060001000e080180022
:101fb00060011900e081190002003b0001f02d00d2
:101fc000030037000400070008f0a70001f0a0009c
:101fd0004f04780000000600889fbe008a9fbe0064
:101fe0000082700004027100048271002600320039
:101ff0000004be000200be006011b8006b092000a2
:10200000950220000182cf000a0039000541b1008d
:102010000082cf00070039000541b1000982cf00de
:10202000040039000541b1000882cf0001003900e9
:102030000541b10005425200120032000a003b0087
:1020400082817100610164008100d1000080d300b1
:102050008984d3000884d3008b05e8000442e8009b
:10206000f7ff3a00070037000804440089844c0059
:1020700000004800818048008b05e9000442e90027
:10208000f9ff3a00f2fd07004f05be004f04be0005
:1020900000000600889fbe008a9fbe008c9fbe0085
:1020a0000404b8000506b8008904460060854e00a7
:1020b0000606b8000a054600e0854e000706b8008f
:1020c0008b054600040eb800890446000a854e00c0
:1020d000e0854d00050eb8000a0546008b854e00d0
:1020e000060eb8008b0546000416b8000a05460027
:1020f0008b854e000516b8008b054600041eb800ff
:102100008b0546000800be000a01be004f06be0057
:0c2110004f05be004f04be00000006009a
:020000040000fa
:10211c0000000000aa2a000054550000fe7f0000b9
:08212c00a8aa000052d5000032
:020000040000fa
:102134000000fa0064958000050020000400be0041
:102144000080fa00000006000000fa00b302070055
:102154000f02070095000700a701070036000700db
:102164000080fa0000000600849fbe00861f7800ed
:102174000000fa000688a900c4958000e00f520010
:1021840003003200c49580000402e900c49588006d
:10219400949580000402e80094958800649080007f
:1021a4000402e80064908800542c21001442780052
:1021b400e04f520006003200542c210014427800f3
:1021c4000442e90004437800552c2100864a780033
:1021d400442c210014427800e04f520006003200e3
:1021e400442c2100144278000442e900044378009e
:1021f400452c2100864a780034968000e00f520076
:1022040003003200349680000402e900349688000a
:1022140014968000e00f52000300320014968000f0
:102224000402e900149688000080fa004f03780045
:102234004f02be00004006000000fa0044958000f2
:10224400e10f520019003a000002eb0044958800a7
:10225400659680003495800004824200649688006c
:10226400e42c2100144278000442e800044378007e
:10227400e52c2100864a7800e42c210014427800e1
:10228400ef4f520009003600649680004422de00bd
:10229400449688000002eb00649688000042eb003c
:1022a40004437800e52c2100864a78004596800096
:1022b400a4152000848f52001a003e00542b2100e4
:1022c4001442780064426200e04f5200150032006c
:1022d400f42c210014427800e04f520011003a001f
:1022e40014c0b30004437800f52c2100864a78001a
:1022f4000002eb0004968800970a0700232ea90029
:102304000002eb00149888000002eb004496880059
:10231400b432a900b472a900b452a90014aea80042
:10232400020007000080fa00000006000e00fa0018
:1023340024002800040f78007492800085928000a5
:1023440054079800650798002e4a90004447980067
:102354003e4a9000544798004e4a900064479800c3
:102364005e4a9000744798000002eb00140798003e
:102374001e02900004427800044f98001e02900050
:102384004822de0004427800144f9800640247009b
:102394008401780062c0b30011c0b3001e0078004d
:1023a400160407000080fa00000006000000fa008e
:1023b400889fbe00e42b210014427800e04f5200b5
:1023c400f7003a00542b2100144278006242620064
:1023d400e04f52005c003a00b68e8000c78e800049
:1023e4007492800085928000840f5300858f5b0077
:1023f4000d003e00b432a900b472a900b452a90081
:102404000002eb0004968800b532a800520a0700c7
:1024140040012000360d0700232ea9000002eb0026
:102424001498880050003700b88e8000c98e800050
:10243400b68e8000c78e8000a41f2100144278004d
:102444000482fb000500200084b8b90086a9b90005
:10245400820078000100400006037800040278003e
:102464000432b800050040008002780042062000d3
:10247400030020000400be007bfd07000002be0034
:102484000403540085835c0074928000859280006c
:10249400840f5300858f5b0033003e00442b2100e2
:1024a4001442780064426200e04f52002e00320071
:1024b400442c210014427800e04f52002a003a00d4
:1024c40064c0b30004437800452c2100864a780098
:1024d40005968000341f2000848f520013003600bc
:1024e400e5958000843e2000848f520004003e0065
:1024f400049680000482e900049688000b003700eb
:10250400e5958000047d2000848f520004003e0085
:10251400049680002403b100049688000300370069
:10252400049680008407b100049688000596800014
:10253400341f2000848f52000b003e00441f2000f3
:102544000496880008003700b68e8000c78e80008d
:102554007492800085928000840f5300858f5b0005
:1025640001003600b532a900542b21001442780032
:1025740061426200e04f520067003a00968e80008c
:10258400a78e80007492800085928000840f53008f
:10259400858f5b0018003900452b21009542780097
:1025a40004c8b30004c26200e04f520012003a00b3
:1025b400b432a900b472a900b452a9000002eb001d
:1025c40004968800b512a800542b21001442780008
:1025d40070426200e04f520002003200c412200038
:1025e40034968800dc090700232ea9000002eb00c2
:1025f4001498880058003700988e8000a98e8000b7
:10260400b68e8000c78e8000941f2100144278008b
:102614000482fb000500200084b8b90086a9b90033
:10262400820078000100400006037800040278006c
:102634000432b80005004000800278004206200001
:10264400030020000400be0007fd07000002be00d6
:102654000803420089834a007492800085928000b6
:10266400840f5300858f5b0034003900442b210014
:102674001442780062426200e04f5200310032009e
:10268400542c210014427800e04f52002f003a00ed
:1026940064c0b30004437800552c2100864a7800b6
:1026a40005968000341f2000848f520013003600ea
:1026b400d5958000843e2000848f520004003e00a3
:1026c400049680000482e900049688000b00370019
:1026d400d5958000047d2000848f520004003e00c4
:1026e400049680002403b100049688000300370098
:1026f400049680008407b100049688000596800043
:10270400341f2000848f520012003e00441f20001a
:102714000496880010003700968e8000a78e8000f3
:102724007492800085928000840f5300858f5b0033
:1027340009003100b512a9000700370000000000ad
:10274400050037000000000003003700000000000f
:102754000100370000000000542b210014427800cf
:1027640070426200e04f5200200032003496800034
:10277400e00f52001d003a00542b2100144278004f
:1027840061426200e04f520018003200b592a90085
:10279400b432a900b472a900b452a80013003700df
:1027a40014968000e00f520010003a00e42b210040
:1027b40014427800e44f52000c003a00b552a800cd
:1027c4000042eb0084427800e22b210005497800a6
:1027d400b432a800b472a900b452a900b4d2a900ba
:1027e400b512a900b532a800b592a8004f04be00e6
:1027f4000080fa00000006000c00fa00442b2100bf
:10280400144278000444b200e04f52005e003200eb
:10281400b4d2a900e42b2100144278000442e80059
:1028240004437800e52b2100864a78001400280030
:10283400040f7800e42b2100144278002447980008
:10284400b512a900b532a900e42b21001442780086
:10285400e14f520001003a00f412a900e42b2100d8
:1028640014427800e14f52003b003600e42b210073
:1028740014427800e44f520037003e00e42b21005c
:1028840014427800e24f520003003a006022b8007c
:102894007492880085928800e42b21001442780009
:1028a4000482fb000483e900749280008592800016
:1028b400c233dd00e61c210006834300048bbe0006
:1028c400e42b2100144278000482fb000482e90016
:1028d400c222dd00e41c2100048242001402be0076
:1028e400f60f200006036200fe439000e0c363007d
:1028f40006c37300764798004823de008e4b900091
:10290400e0c3630006c37300064f9800f60f20006f
:10291400068362009e4b9000e0c3630006c373000d
:10292400164f9800482ade00ae4a9000e0c26200ca
:1029340004c27200244f98007e42900034479800ed
:102944000e4a9000444798001e4a9000544798004d
:102954002e4a9000644798000e82e80084017800b3
:1029640052c0b30011c0b3001e007800a3020700d8
:10297400e42b210014427800e44f520002003a0094
:1029840004142000149688000080fa000000060059
:102994000000fa00442b21001442780062426200d5
:1029a400e04f52003e003200542b210014427800c4
:1029b40061426200e04f520039003a00442f210086
:1029c4001442780061426200e04f520012003a0063
:1029d400a49580004422de006142620061426200ec
:1029e400562f210016437800e5cfb30085426300db
:1029f40004c2720004437800552f2100864a7800ef
:102a040014010700232ea800140020001498880045
:102a14009208070022003700542f21001442780046
:102a2400e1426200a49580004422de00614262001b
:102a340084cf52001a0032000002eb000496880092
:102a440014c0b3000443780005262100864a7800a8
:102a540085988000840c2000848f520010003c0074
:102a640040012000a20b0700a49580004422de0050
:102a74006142620061426200562f210016437800d1
:102a8400e5cfb3008542630004c2720004437800ba
:102a9400552f2100864a7800ee0007006f080700d2
:102aa400442b21001442780064426200e04f52003b
:102ab4003e003200542b210014427800624262002e
:102ac400e04f520039003a00442f210014427800ac
:102ad40061426200e04f520012003a00a495800067
:102ae4004522de006142620061426200562f2100ed
:102af40016437800e5cfb3008542630004c2720038
:102b040004437800552f2100864a7800d10007003d
:102b1400232ea80014002000149888004f080700f2
:102b240022003700542f210014427800e142620051
:102b3400a49580004522de006142620084cf5200e9
:102b44001a0032000002eb000496880014c0b3009f
:102b54000443780005262100864a78008598800081
:102b6400840c2000848f520010003c00400120009f
:102b74005f0b0700a49580004522de0061426200dd
:102b840061426200562f210016437800e5cfb3005e
:102b94008542630004c2720004437800552f21006b
:102ba400864a7800ab0007002c080700442b21005c
:102bb4001442780068426200e04f5200150032006f
:102bc400442f21001442780061426200e04f520019
:102bd400100032000002eb000496880014c0b30019
:102be4000443780005262100864a780085988000f1
:102bf400840c2000848f520006003c005608070015
:102c0400400120003a0b0700232ea9000002eb002c
:102c1400149888000080fa00000006000000fa0002
:102c24001471800064026200e00f520007003a0051
:102c3400642b2100144278000404a00004437800ab
:102c4400652b2100864a780007003700652b210098
:102c540095427800e4cfb30004c2620004437800d4
:102c6400652b2100864a780015708000041020002e
:102c740004826200e00f520007003200642b21003e
:102c8400144278000414a00004437800652b21004a
:102c9400864a780007003700652b210095427800aa
:102ca400d4cfb30004c2620004437800652b210032
:102cb400864a78001471800062026200e00f5200bc
:102cc40007003a00642b2100144278000424a00079
:102cd40004437800652b2100864a780007003700fa
:102ce400652b210095427800b4cfb30004c2620082
:102cf40004437800652b2100864a7800752b210057
:102d040095427800642b21001442780084cf52004d
:102d14000f003200642b2100144278000443780031
:102d2400752b2100864a7800642b21001442780018
:102d3400e74f520003003a0044062000c49588007f
:102d44004200370054002000c49588003f0037003b
:102d5400c4958000e00f52003b003a00642b210030
:102d640014427800e04f520038003200a52c2100b4
:102d740095427800642b21001442780084cf5200dd
:102d840032003200642b210014427800044378009e
:102d9400a52c2100864a7800642b21001442780077
:102da4000482fb00cfa2de00760020000700200092
:102db400860f5200878f5a001a003e000406010055
:102dc4001a003700060037000900370017003700e3
:102dd4000b00370015003700140037000c003700d3
:102de400b432a800b472a900b452a900100037008c
:102df400b432a900b472a800b452a9000c00370080
:102e0400b432a900b472a900b452a8000800370073
:102e1400b432a900b472a900b452a900b4d2a80073
:102e2400030037000000000001003700000000002c
:102e3400642b21001442780004437800e52021002b
:102e4400864a780001003700000000000080fa0084
:102e5400000006000000fa00442b21001442780010
:102e640062426200e04f520016003200341f21001b
:102e7400144278000482fb00e20f52000700320083
:102e8400e30f520008003200e10f520009003a003b
:102e9400843e2000d495880007003700047d20007c
:102ea400d49588000400370044b52000d4958800e8
:102eb4000100370000000000d495800004968800cb
:102ec40025003700441f2100144278000482fb00cf
:102ed4006123b9000082eb008082eb00060242000d
:102ee40087824a004600200007002000860f520017
:102ef400878f5a0015003e000406010004003700c5
:102f040006003700080037000a0037000c003700bd
:102f1400441f2000e49588000d003700e42e2000b3
:102f2400e49588000a003700843e2000e495880078
:102f340007003700047d2000e49588000400370072
:102f440044b52000e495880001003700000000002b
:102f5400e495800004968800e42b21001442780054
:102f6400e04f520002003200e42e20000496880054
:102f74000080fa00000006000200fa000002eb00e4
:102f8400040f78001400370020032000580a0700bb
:102f9400a5708000040220000482620004f0a700ef
:102fa4000402ea000402e9004f22de000442780031
:102fb4000482fb00610262004522dd00a6708000ed
:102fc400f5fd2f008502630005027200a4708800dd
:102fd4000060fe001e0fe8001e027800e50f52009c
:102fe400e9ff360014aea900b552a9000080fa002a
:102ff400000006000000fa00100ea800641c200067
:10300400441188000002eb00041188000002eb0068
:10301400141188002442800004c0a10004d0a00040
:1030240004e0a100244288000168a9002168a800e6
:1030340021e2a8002342a8000080fa000000060054
:103044003600f800809fbe00829fbe00849fbe00b1
:10305400869fbe000200fa0034118000044f7800fd
:10306400c41b2100144278000483fb008515210051
:10307400850243009e4a78000442e8000443780035
:10308400c51b2100864a78001e4278008482fb001a
:10309400048e800004824200048e88000800070029
:1030a4000168a9000080fa004f03be004f02be0071
:1030b4004f01be004f00be003600f900004006007c
:1030c4000400fa00c41b210014427800e24f5200ad
:1030d40016003a008515210095427800b4cbb30060
:1030e40084cf520004003a00941521001442780061
:1030f400e04f52000a003200941521001442780077
:103104000443780085152100864a780014c0b30072
:1031140004437800c51b2100864a78006e003700fe
:10312400b40b2000048e88006b003700c41b210000
:1031340014427800e84f52000e003a000042eb00bf
:1031440004437800d51b2100864a7800e515210048
:1031540095427800d41b21001442780004c2420036
:103164006a42420004437800d51b2100864a780055
:1031740059003700c41b210014427800e94f520063
:1031840055003600c51b210095427800d41b210050
:103194001442780084cf52004f003a00058e80001c
:1031a400c41b2100144278000482fb000403e900dc
:1031b4008415210004024300144278000482fb00b9
:1031c40084825200c41b2100144278000482fb0054
:1031d4000483e900841521000402430014427800aa
:1031e4000482fb0004825200048e8800c41b210068
:1031f400144278000482fb008402e9008415210053
:1032040004824200144278000482fb004822dd005c
:1032140014079800c41b2100144278000482fb00a8
:103224008482e9008415210004824200144278005b
:103234000482fb009e02900004824200140798005e
:10324400048e80009e029000848f520018003a0081
:103254000042eb00044f78000b0037001e42780058
:103264000483fb001e4278008482fb008415210045
:103274000482420094427800a4182100040243000e
:10328400054a78001e4fe800d41b21001442780040
:103294009e42780084cf5200f0ff390014c0b3007e
:1032a40004437800e51b2100864a780004003700b7
:1032b40024c0b30004437800e51b2100864a78004b
:1032c4000002eb00048e88000042eb000443780007
:1032d400c51b2100864a78000080fa000000060021
:1032e4000200fa00004f7800000000001511800071
:1032f4000420200004826200e00f5200fbff3a0029
:103304009e4278000582fb00241188000080fa00a8
:10331400000006000400fa0020479800a4182100c9
:103324001442780004407800edff0700a41821003f
:10333400144278000482fb00040f7800b4182100c2
:103344001442780004407800e5ff0700c418210007
:103354001442780004407800e1ff0700c4182100fb
:10336400144278000482fb001e0f4200d41821008e
:103374001442780004407800d9ff0700d4182100d3
:10338400144278000482fb001e0f4200e41821005e
:103394001442780004407800d1ff0700e4182100ab
:1033a400144278000482fb001e0f42002e4090005d
:1033b400cbff07002e4290000482fb001e0f420048
:1033c4000040eb00c6ff07000040eb00c4ff07000d
:1033d4001e0278000442780004407800c0ff070011
:1033e4001e0278004822de0004427800044078007f
:1033f400bbff07000080fa00000006000a00fa0084
:103404002007980061479800724798004307980086
:10341400b0cbb300b2ff0700b40b2000040f780058
:103424000040eb00aeff07002e02900034479800e6
:103434003e409000aaff07003e4290000482fb0039
:103444001e0f42002e0290004822de0034479800ee
:103454003e409000a2ff07003e4290000482fb0021
:103464001e0f42006e4090009dff07006e429000c8
:103474000482fb001e0f42000040eb0098ff07008f
:103484007e409000304798003e40900094ff070033
:103494003e4290000482fb001e0f42007e429000d8
:1034a4008482fb0004102000110009008402d8006b
:1034b40000027800344798003e40900088ff0700df
:1034c4003e4290000482fb001e0f42000042eb00cb
:1034d400244798000e0037002e4290000482fb001f
:1034e400ce0290000482420094427800354798004e
:1034f4003e4090007aff07003e4290000482fb00a9
:103504001e0f42002e4290000442e8002447980017
:10351400ae4290007e42900084cf5200eeff39000c
:103524001e02780004427800044078006cff070013
:103534001e0278004822de0004427800044078002d
:1035440067ff07000080fa00000006001000fa0080
:10355400e41b210014427800e04f5200290132009c
:10356400e418210014427800e24f520004013a00aa
:10357400e41b210014427800e14f5200f9003a00a4
:103584000040eb0063ff0700c418210014427800d8
:1035940034479800d4182100144278004447980016
:1035a4003e4290000482fb00ce4290008582fb00e4
:1035b400c82add000502720015202000850f520084
:1035c4005b00320015202000850f52000a003e00e7
:1035d40025102000850f52002e00320035102000e7
:1035e400850f52003900320015102000850f52005b
:1035f40008003200ff00370035202000850f5200fc
:10360400ad00320035202000850f52005c003900e7
:10361400f800370024192100144278001447980058
:103624001e429000e14f520004003a00b432a80058
:10363400b472a900b452a900ee0037001e429000f3
:10364400e24f520004003a00b432a900b472a80058
:10365400b452a900e70037001e429000e44f520024
:1036640004003a00b432a900b472a900b452a8000c
:10367400e00037001e429000e74f5200d6003a00a7
:10368400b432a900b472a900b452a900b4d2a800fb
:10369400d8003700442b21001442780062426200b3
:1036a400e04f520005003a00442b210014427800f8
:1036b40064426200e04f5200c9003200b432a900f3
:1036c400b472a800b452a900ca0037002519210019
:1036d40095427800154798001e429000e04f520032
:1036e400030032001e429000e34f520004003a00ef
:1036f400b432a900b472a800b452a900bd003700c6
:103704001e429000e14f520003003a00b492a90017
:10371400b4b2a800b70037001e429000e24f520036
:10372400b1003a00b492a800b4b2a900b1003700c5
:103734000042eb00044f78000c0037001e42780072
:103744000483fb009e4278000582fb00e8024200ed
:10375400a41821000482420094427800a41d210090
:1037640004024300054a78001e4fe80014c3b30066
:103774009e42780084cf5200f0ff36009d0037004f
:103784000042eb00044f78000c0037001e42780022
:103794000483fb009e4278000582fb00e80242009d
:1037a400a41821000482420094427800241c2100c1
:1037b40004024300054a78001e4fe8001e427800c8
:1037c400eb4f5200f1ff36000042eb00044f78004b
:1037d400340037009e42780024002000042add00d3
:1037e400244798002e4290008482fb00241c210070
:1037f4000482420014427800544798002e429000fc
:103804000482fb008402e800241c2100048242009c
:1038140014427800644798002e4290000482fb0012
:103824008482e800241c21000482420014427800af
:10383400744798002e4290000482fb00e302420089
:10384400241c21000482420014427800044f980092
:103854001e4278000483fb00de4390008783fb0054
:103864006e4090000080fb004800dd008083730000
:1038740007027800fe4390008783fb000e48900007
:103884000080fb004800dd0080837300870278001d
:10389400c233dd00e61c210006834300048bbe0016
:1038a4001e4fe8001e427800e24f5200c9ff360066
:1038b400b552a8004f0037000042eb00044f7800d7
:1038c4000b0037009e4278000582fb001e437800ff
:1038d4008682fb0068834200a5182100850243000c
:1038e400954278006902420005777a001e4fe8008d
:1038f4001e427800e54f5200f2ff36001e4a900047
:10390400544798002e4a9000644798003e4a90001d
:10391400744798004e4a9000044f98005e4390000c
:103924000683fb00ee4390008783fb00c83bdd0069
:1039340007037300060278007e4390000683fb00b1
:103944008e4b90008783fb00c83bdd0007037300a8
:10395400860278007492880085928800b552a80087
:1039640024003700e41b210014427800e24f520087
:1039740020003a0010c0b30066fe07001d003700a7
:10398400e41b210014427800e14f520019003a0070
:10399400c41821001442780034479800d418210038
:1039a40014427800444798003e4290000482fb0091
:1039b400ce4290008582fb00c82add000502720019
:1039c4008402780014002800848f520008003a0012
:1039d4000000000007003700000000000500370069
:1039e4000000000003003700000000000100370061
:1039f400000000000042eb0004437800e51b2100b6
:103a0400864a78000080fa00000006000400fa00ec
:103a1400204798002e4290006f426200244798008d
:103a24002e429000e94f520004003e00ae42900046
:103a340004c3b30004cf7200030037002e42900089
:103a440075c3b300054f42001e427800044078005d
:103a54000080fa00000006000400fa000002eb00f7
:103a64001407980064908000e10f52004a00360069
:103a74000002eb0064908800049280001407980010
:103a840050cab30016fe07001e0290004822de0052
:103a9400044f78001e40780011fe07001e029000bb
:103aa400044f78001e4078000dfe070074928000d9
:103ab40085928000140798001e0290004822de00c0
:103ac400044f78001e40780005fe07001e02900097
:103ad400044f78001e40780001fe070034958000f2
:103ae400140798001e0290004822de00044f78005c
:103af4001e407800fafd07001e029000044f780073
:103b04001e407800f6fd0700442b21001442780083
:103b140070426200e04f520003003a000042eb00a2
:103b2400044f78000200370014c0b300044f78003b
:103b34001e407800eafd07000002eb00140798001d
:103b44001e0290004822de00044f78001e407800d8
:103b5400e3fd07001e029000044f78001e40780029
:103b6400dffd07000002eb00140798001e0290001e
:103b74004822de00044f78001e407800d8fd07007c
:103b84001e029000044f78001e407800d4fd070008
:103b9400a0cab300d2fd07000080fa0000000600ae
:103ba4001e00fa00500f9800610f980044618000d5
:103bb40064079800de0a900094ed2600848f52007a
:103bc4000200340094ed2600540f98006e0a900011
:103bd400e00f520006013500ee0a9000445525001e
:103be400848f5200ac003e00ee0a900094aa22009a
:103bf400848f520053003e006e0b900076079800ad
:103c0400a5aa22007e02900004825200040f9800ac
:103c14007e0290004622de00740798000e0a90008f
:103c24004622de00040f98007e029000b50a2000b0
:103c3400850f520001003600b40a20007407980072
:103c44000e0a9000b50a2000850f520001003600cc
:103c5400b40a2000040f98000e0a90000442780071
:103c64000482fb008402420004002100048242001a
:103c740014027800440798007e0290000442780001
:103c84000482fb00840242000400210004824200fa
:103c94001402780054079800ee0290005e0a900027
:103ca40005a2b900412bdd004f22de00040273009f
:103cb400cfaade00140f98009e0a90004e029000d6
:103cc40005a2b900412bdd004f22de00040273007f
:103cd400cfaade00440798009e0a90005e0290007e
:103ce40005a2b900412bdd004f22de00040273005f
:103cf400cfaade0054079800ee0290004e02900016
:103d0400848252005e029000048252000402d100b8
:103d140034079800ce0290005e0290008482420034
:103d24003e029000048f4200de0290003e029000aa
:103d340004824200140798003e0290002407980071
:103d4400b2013700ee0a900064552d00048242004f
:103d540074079800a5aa22007e02900004825200f3
:103d6400040f98007e0290004622de00740798003b
:103d74000e0a90004622de00040f98007e02900096
:103d8400b50a2000850f520001003600b40a200055
:103d9400740798000e0a9000b50a2000850f52009f
:103da40001003600b40a2000040f98000e0a9000a7
:103db400044278000482fb008402420004002100d3
:103dc4000482420014027800440798007e029000a6
:103dd400044278000482fb008402420004002100b3
:103de400048242001402780054079800ee02900006
:103df4005e0a900005a2b900412bdd004f22de00cf
:103e040004027300cfaade00140f98009e0a9000eb
:103e14004e02900005a2b900412bdd004f22de00c6
:103e240004027300cfaade00440798009e0a9000a3
:103e34005e02900005a2b900412bdd004f22de0096
:103e440004027300cfaade0054079800ee0290002b
:103e54004e029000848252005e029000048252005e
:103e64000402d10034079800ce0290003e02900074
:103e7400048f4200ce0290005e02900084824200d1
:103e84003e02900004824200140798003e02900013
:103e9400240798005d013700ee0a9000b4aa2a00b6
:103ea4000482420074079800a5aa22007e029000b2
:103eb40004825200040f98007e0290004622de0025
:103ec400740798000e0a90004622de00040f980042
:103ed4007e029000b50a2000850f520001003600d2
:103ee400b40a2000740798000e0a9000b50a200056
:103ef400850f520001003600b40a2000040f980018
:103f04000e0a9000044278000482fb0084024200fe
:103f1400040021000482420014027800440798003f
:103f24007e029000044278000482fb008402420076
:103f3400040021000482420014027800540798000f
:103f4400ee0290005e0a900005a2b900412bdd004c
:103f54004f22de0004027300cfaade00140f980083
:103f64009e0a90004e02900005a2b900412bdd008c
:103f74004f22de0004027300cfaade00440798003b
:103f84009e0a90005e02900005a2b900412bdd005c
:103f94004f22de0004027300cfaade00540798000b
:103fa400ee0290004e029000848252005e02900065
:103fb400048252000402d100340798003e029000ab
:103fc400040f7800ce0290005e02900084824200ca
:103fd4003e0290000482420014079800de02900022
:103fe4003e02900004824200240798000701370033
:103ff400ee0a900044552d00848f5200af003e001d
:10400400ee0a900094aa2a00848f520056003e00c3
:10401400ee0a90000400280004824200740798000d
:10402400a5aa22007e02900004825200040f980088
:104034007e0290004622de00740798000e0a90006b
:104044004622de00040f98007e029000b50a20008c
:10405400850f520001003600b40a2000740798004e
:104064000e0a9000b50a2000850f520001003600a8
:10407400b40a2000040f98000e0a9000044278004d
:104084000482fb00840242000400210004824200f6
:1040940014027800440798007e02900004427800dd
:1040a4000482fb00840242000400210004824200d6
:1040b4001402780054079800ee0290005e0a900003
:1040c40005a2b900412bdd004f22de00040273007b
:1040d400cfaade00140f98009e0a90004e029000b2
:1040e40005a2b900412bdd004f22de00040273005b
:1040f400cfaade00440798009e0a90005e0290005a
:1041040005a2b900412bdd004f22de00040273003a
:10411400cfaade0054079800ee0290004e029000f1
:10412400848252005e029000048252000402d10094
:10413400340798003e029000040f7800ce029000ed
:104144003e0290000482420014079800ce029000c0
:104154005e029000848242003e029000048242008b
:1041640024079800a9003700ee0a90006455250042
:104174000482420074079800a5aa22007e029000df
:1041840004825200040f98007e0290004622de0052
:10419400740798000e0a90004622de00040f98006f
:1041a4007e029000b50a2000850f520001003600ff
:1041b400b40a2000740798000e0a9000b50a200083
:1041c400850f520001003600b40a2000040f980045
:1041d4000e0a9000044278000482fb00840242002c
:1041e400040021000482420014027800440798006d
:1041f4007e029000044278000482fb0084024200a4
:10420400040021000482420014027800540798003c
:10421400ee0290005e0a900005a2b900412bdd0079
:104224004f22de0004027300cfaade00140f9800b0
:104234009e0a90004e02900005a2b900412bdd00b9
:104244004f22de0004027300cfaade004407980068
:104254009e0a90005e02900005a2b900412bdd0089
:104264004f22de0004027300cfaade005407980038
:10427400ee0290004e029000848252005e02900092
:10428400048252000402d10034079800de02900038
:104294003e029000048f42003e02900014079800f2
:1042a400ce0290005e029000848242003e029000a2
:1042b400048242002407980054003700ee0a90005c
:1042c400b4aa22000482420074079800a5aa22001e
:1042d4007e02900004825200040f98007e02900037
:1042e4004622de00740798000e0a90004622de0083
:1042f400040f98007e029000b50a2000850f52003a
:1043040001003600b40a2000740798000e0a9000d9
:10431400b50a2000850f520001003600b40a2000bf
:10432400040f98000e0a9000044278000482fb00f7
:104334008402420004002100048242001402780036
:10434400440798007e029000044278000482fb0037
:104354008402420004002100048242001402780016
:1043640054079800ee0290005e0a900005a2b9007e
:10437400412bdd004f22de0004027300cfaade00d1
:10438400140f98009e0a90004e02900005a2b900f6
:10439400412bdd004f22de0004027300cfaade00b1
:1043a400440798009e0a90005e02900005a2b9009e
:1043b400412bdd004f22de0004027300cfaade0091
:1043c40054079800ee0290004e029000848252003e
:1043d4005e029000048252000402d1003407980067
:1043e400ce0290005e029000848242003e02900061
:1043f400048f42003e02900014079800ce02900001
:104404003e0290000482420024079800c408200061
:104414009e027800848f5200030036001e03780049
:104424003661880002003700c40820003461880027
:104434009e029000c4082000848f520003003600be
:104444001e0290003462880002003700c408200075
:1044540034628800ae029000c4082000848f5200a9
:10446400030036002e0390003663880002003700f4
:10447400c408200034638800ce0290005e029000dd
:10448400848242003e02900004824200240f98007d
:10449400de0290003e02900004824200340f980035
:1044a4003e029000440f9800ae0a90003e0a90002d
:1044b400048242000482d100a402b000a4988800bf
:1044c400a4988000946188000080fa00000006002f
:1044d4003600f800809fbe00829fbe00849fbe000d
:1044e400869fbe000200fa000bc8a9008431210097
:1044f400144278000442e800044378008531210026
:10450400864a78008431210014427800e14f520039
:10451400170036000042eb00044378008531210087
:10452400864a780014988000e10f520010003a0087
:1045340015718000042020000482620004f0a700aa
:104544000402ea000402e9004f22de00044278007b
:104554000482fb00610262004922dd0016718000c2
:10456400f5df2f00850263000502720014718800d4
:10457400a5708000040220000482620004f0a700f9
:104584000402ea000402e9004f22de00044278003b
:104594000482fb00610262004522dd00a6708000f7
:1045a400f5fd2f008502630005027200a4708800e7
:1045b400056180000400280004826200e00f5200bc
:1045c4000200320010002000f2010700c42f210075
:1045d4001442780062426200e04f520025003a0023
:1045e40084918000e10f520010003a006591800030
:1045f400e4928000048252006491880075918000e6
:1046040064918000048f520094aa22009e027800d4
:10461400848f5200170036007591800064552d0078
:104624000482420064918800120037008491800063
:10463400e20f52000f003a0065918000e49280007e
:104644000482420064918800659180007491800026
:10465400048f520094aa22009e027800848f520094
:104664000400360075918000a4aa2200048242004e
:104674006491880034928000e00f520009003d00ec
:10468400659180008490800084824200349280008e
:104694000482ea00850078000400780040fd0700e9
:1046a4000700370065918000849080008482420076
:1046b40034928000850078000400780038fd0700fb
:1046c4000080fa004f03be004f02be004f01be003f
:1046d4004f00be003600f900004006000e00fa004c
:1046e400000f7800110798002207980033079800fc
:1046f4004407980055079800660798001e02780042
:1047040094427800e0c26200054a78009442900026
:10471400e0c2620015429800a4429000e0c2620028
:1047240025429800b4429000e0c2620035429800ed
:104734001e0278001e039000f50f2000850263001e
:1047440044439000604363008542730045429800ef
:104754009e029000c82ade00544390006043630028
:1047640085427300554298001e0278002e03900083
:10477400f50f2000850263006443900060436300ea
:104784008542730065429800ae029000c82ade009c
:10479400744390006043630085427300754298003f
:1047a4001e0278003e039000f50f2000850263008e
:1047b400044b90006043630085427300054a9800ef
:1047c400be029000c82ade00144b900060436300d0
:1047d40085427300154a98001e0278004e0390002b
:1047e400f50f200085026300244b900060436300b2
:1047f40085427300254a9800ce029000c82ade0044
:10480400344b90006043630085427300354a98003e
:104814001e0278005e039000f50f200085026300fd
:10482400444b90006043630085427300454a9800fe
:10483400de029000c82ade00544b900060436300ff
:1048440085427300554a98001e0278006e0390005a
:10485400f50f200085026300245390006043630039
:104864008542730025529800ee029000c82ade00ab
:1048740034539000604363008542730035529800be
:104884000080fa00000006000a00fa0040079800c1
:104894004e029000e44a90008582fb00744a900026
:1048a4000482fb004822dd00048272008402780046
:1048b4004e029000045390000683fb0014529000b3
:1048c4000482fb004822dd0004027300048f5200be
:1048d4004e029000c44290008582fb005442900036
:1048e4000482fb004822dd00048272008402780006
:1048f4001e02780005a2b900140798002507980045
:104904004e039000164278008483fb00164090000a
:104914000080fb004800dd008083730007027800fc
:10492400a64390008783fb00364390000683fb0078
:104934004833dd0006837300860278001e0390006e
:10494400ae0390000602420087824a0014079800d2
:10495400250798001e029000ae029000412bdd0056
:104964004f22de0004027300cfaade003407980051
:104974004e029000a44a90008582fb00344a9000c5
:104984000482fb004822dd00048272008402780065
:104994003e029000848f520015003d004e029000ac
:1049a400a44a90008582fb00344a90000482fb00f4
:1049b4004822dd0004827200840278004e029000d6
:1049c400f60f200006836200a4539000e0c3630046
:1049d40006c3730026529800c82ade0034539000a0
:1049e4006043630085427300355298002e003700ff
:1049f4004e029000c44a90008582fb00544a900005
:104a04000482fb004822dd000482720084027800e4
:104a14003e029000848f5200150034004e02900034
:104a2400c44a90008582fb00544a90000482fb0033
:104a34004822dd0004827200840278004e02900055
:104a4400f60f200006836200a4539000e0c36300c5
:104a540006c3730026529800c82ade00345390001f
:104a64006043630085427300355298000e0037009e
:104a74004e0290003e039000f50f20008502630073
:104a840024539000604363008542730025529800cc
:104a9400be029000c82ade003453900060436300d5
:104aa40085427300355298004e029000e442900013
:104ab4008582fb00744290000482fb004822dd00e2
:104ac40004827200840278001e02780005a2b900f4
:104ad40014079800250798004e029000a4529000f5
:104ae4008582fb00345290000482fb004822dd00e2
:104af40004827200be029000048f52004e029000a5
:104b0400844a90008582fb00144a90000482fb00d2
:104b14004822dd0004827200840278001e027800bc
:104b240005a2b9001e039000ae03900004025300d6
:104b340085825b0014079800250798004e039000b7
:104b4400164278008483fb00164090000080fb002e
:104b54004800dd008083730007027800a6439000bc
:104b64008783fb00364390000683fb004833dd0057
:104b740006837300860278001e039000ae03900043
:104b84000403430085834b004e029000f50f200080
:104b94008502630014407800604060008542700024
:104ba400054a7800c832de0014409000604060007e
:104bb4008542700015429800f50f2000858263003d
:104bc40024409000604060008542700025429800b7
:104bd400c83ade00344390006043630085427300aa
:104be400354298000080fa00000006000000fa0038
:104bf40004742c001461880004742c00146288006e
:104c040004742c001463880001eca8001000200038
:104c14003703070004002c001461880004002c00f2
:104c24001462880004002c001463880001eca900bd
:104c3400446180000402d100346188004462800031
:104c44000402d10034628800446380000402d1006d
:104c5400346388000080fa00000006000000fa00b7
:104c6400f472a800f492a900542f21001442780091
:104c740061426200e04f52000900320014c0b300e8
:104c840004437800752f2100864a780014c0b300cd
:104c940004437800652f2100864a78000800370015
:104ca4000042eb0004437800752f2100864a780007
:104cb4000042eb0004437800652f2100864a780007
:104cc4000042eb000443780005262100864a780060
:104cd40077010700b5f00700e8f10700c3ff0700fc
:104ce4000002eb00040888000002eb00340888008e
:104cf4000002eb005408880005e1a80011e1a800b7
:104d040013e1a8000068a90000e8a9000108a900af
:104d14000028a90000a8a90004a8a9002068a800e8
:104d240020e8a8002108a8002028a80020a8a8009e
:104d340024a8a8000bc8a9002bc8a80001eca8004f
:104d440021e3a800f412a8001400200004988800ad
:104d54000080fa00000006000000fa0001eca9003f
:104d640020e8a9002108a9002bc8a90011e1a90085
:104d740013e1a90021e3a900f412a9000042eb0009
:104d84000443780005262100864a78000080fa0052
:104d9400000006000200fa00000f78001e027800ee
:104da4007495880074958000e00f5200030032006f
:104db40014002000249288001d0007000080fa00df
:104dc400000006000000fa00d4978000e40f5200af
:104dd40015003a00f4978000e10f520012003a00e7
:104de40064978000e00f52000a0034006597800049
:104df400949780000482520064978800649780002e
:104e0400e00f520008003d000002eb0064978800a8
:104e1400050037000002eb00649788000002eb00f5
:104e2400f4978800020007000080fa0000000600e2
:104e34000000fa00c8ff0700232ea9000002eb00bf
:0c4e4400149888000080fa0000000600ae
:020000040000fa
:104e5000ac1200002800000080000000f4120000e6
:104e6000100000008000000058110000b800000091
:104e70008000000004130000100000008200000009
:104e80006c013e0029ff0400020300000501ff0041
:104e9000c800640000000000101200005400000070
:104ea00080000000141300000600000080000000d5
:104eb0000010000058010000820000000000c9003e
:104ec000009101005a02230003eb0300b4047c00ac
:104ed000054506000d07d500079e080066092e004f
:104ee0000af60a00be0b85000c4d0d00150edc0005
:104ef0000ea30f006a10310011f81100bf128500d7
:104f0000134b14001115d700159d160062172700ca
:104f100018ec1800b11975001a3a1b00fe1bc100ed
:104f20001c851d00481e0b001fcd1f008f20510047
:104f300021132200d4229500235624001625d600e2
:104f4000259526005427130028d128008f294d00cd
:104f50002a0a2b00c72b83002c3f2d00fb2db60007
:104f60002e702f002b30e400309d310056320e00a1
:104f700033c633007d34340035ea3500a0365500a1
:104f8000370a3800be38720039253a00d73a89000e
:104f90003b3b3c00eb3c9c003d4b3e00fa3ea900f5
:104fa0003f5640000341b000415c42000743b2005d
:104fb000435c44000545ae0045564600fd46a4004e
:104fc000474a4800ef48930049374a00da4a7d00d3
:104fd0004b1f4c00bf4c60004dff4d009e4e3c00ef
:104fe0004fd94f007650110051ac51004652e000ad
:104ff000527853001054a700543d5500d255670015
:1050000056fa56008d571f0058b058004059d0002e
:10501000595e5a00ec5a79005b055c00905c1a00fe
:105020005da35d002b5eb3005e395f00bf5f44008f
:1050300060c860004a61cc00614d6200cd624c00e6
:1050400063cb63004864c400643f6500ba65330005
:1050500066ab660023679900670e68008368f600f8
:1050600068686900da694a006ab96a00276b9500c6
:105070006b016c006c6cd6006c3f6d00a76d0e0070
:105080006e746e00d96e00006412000048000000cb
:1050900080000000d412000020000000800000000a
:0450a000000000000c
:020000040000fa
:1050a4000000fa000002eb00747088000002eb00bc
:1050b400f47088000002eb00747188000002eb00b9
:1050c400047088000002eb00847088000002eb008a
:1050d400047188000002eb00147088000002eb00e9
:1050e400947088000002eb00147188000002eb0049
:1050f400247088000002eb00a47088000002eb001a
:10510400247188000002eb00347088000002eb0078
:10511400b47088000002eb00347188000002eb00d8
:10512400447088000002eb00c47088000002eb00a9
:10513400447188000082eb00547088000082eb0008
:10514400d47088000082eb00547188001b4ea900c3
:105154001b6ea9001b8ea9001baea9001bcea900c3
:105164001beea900153a8000f4fb2f0004836200b3
:10517400640420007505200027742000844b780007
:10518400854b7800864b780011cea90011eea9005a
:10519400118ea90011aea900114ea900116ea9002b
:1051a400110ea800c535800004f82f008482620027
:1051b4008402200005027200c4358800102ea80065
:1051c400104ea8000002eb0074358800753580008d
:1051d40004f82f0084826200340220000502720069
:1051e4007435880075358000f40f280084826200cd
:1051f400042022000502720074358800106ea80095
:105204000002eb00843588008535800004f82f0007
:105214008482620014022000050272008435880032
:105224006534800004fc2f00048262000400a000a6
:10523400643488002536800004f82f0084826200dc
:10524400040220000502720024368800010ea80022
:10525400204ea800202ea800212ea900002ea80070
:105264000e2ea8000a2ea900200ea8002e0ea800bb
:105274002a0ea900153a80000404200005037200d8
:10528400640420007505200027742000844b7800f6
:10529400854b7800864b780000eea90004eea90047
:1052a40010aea90014aea9000080fa0000000600a8
:1052b4000000fa000002eb00749788000002eb0083
:1052c400849788000002eb0094978800047d2000f6
:1052d400449788000002eb005497880084992700c3
:1052e400649788000003eb008002eb008499270098
:1052f400f3ff2700c25d200081a92300402d210077
:10530400f6fc07000080fa00000006000000fa0026
:1053140084978000e00f52000b003a00f49780005d
:10532400e00f520008003a00449780001497880068
:105334005497800024978800402d210052fd0700d7
:1053440034978000649788009efe070002000700df
:105354000080fa00000006000000fa008497800034
:10536400e00f52001d003a005597800084bb2000d6
:10537400848f5200140036007597800014032000b7
:10538400848f520004003e00749780000402e800f9
:105394007497880021003700140020008497880047
:1053a400349280006497880064978000cfa2de0066
:1053b400860c20001100090046aad80000027800db
:1053c40094978800150037000002eb00749788005a
:1053d4000002eb0084978800100037006497800077
:1053e400e00f52000a003400659780009497800013
:1053f400048252006497880064978000e00f520092
:1054040006003d000002eb006497880003003700ab
:105414000002eb006497880085fe07000080fa0014
:10542400000006000000fa00041980000480a100b6
:105434000490a10004198800041980000450a100fc
:105444000460a1000470a100041988002083a8004e
:105454002063a8002043a8002143a9000002eb0018
:1054640014198800141980000480a1000490a1007c
:105474001419880044202000241988000002eb003d
:10548400941988000002eb008419880045198000f3
:1054940004fc2f00048262000400a0004419880068
:1054a40028e3a9000002eb008419880001a8a900e0
:1054b40021a8a80021e3a900344280000440a100ef
:1054c4000450a1000460a000344288000080fa0067
:1054d400000006000000fa00041b80000480a10004
:1054e4000490a100041b8800041b80000450a00049
:1054f4000460a0000470a000041b88006083a9005d
:105504006063a8006043a8006143a9000002eb00a7
:10551400141b8800141b80000480a1000490a100c7
:10552400141b8800f4322000241b88000002eb00c6
:10553400941b88000002eb00841b8800451b80003c
:1055440004fc2f00048262006400b300441b880042
:1055540068e3a9000002eb00841b880002a8a900ec
:1055640022a8a80061e3a800544280000440a000df
:105574000450a1000460a100544288000080fa0095
:10558400000006000000fa0044042000343a8800b9
:10559400243a80000460a1000470a100243a880029
:1055a400253a800004fe2f00048262000410a0004b
:1055b400243a88003600200084072000a509200032
:1055c40037742000844b7800854b7800864b780034
:1055d40016002000640420007505200027742000b4
:1055e400844b7800854b7800864b780000000000df
:1055f400153a80000400270084826200040023001e
:10560400848f5200faff3a0000000000153a80002f
:105614000402200004826200e00f5200fbff32000b
:1056240044e0a9004400a90020032000b0000700c2
:105634000060fe009afe07007aff0700a5ff07003e
:10564400c500070054000700610007006e00070052
:105654000060fe00100007007a00070065f60700ee
:10566400ecef07000060fe00218ca800440020003d
:105674002461880044002000246288004400200043
:10568400246388003cf607000060fe00aef20700c9
:10569400aef70700fcff37000000fa006411210098
:1056a400446188006411210044628800641121006f
:1056b40044638800d42222002460880004002c0063
:1056c4001461880004002c001462880004002c007b
:1056d400146388000002eb00546188000002eb00b0
:1056e400546288000002eb00546388008411200097
:1056f40064618800841120006462880084112000a1
:10570400646388000002eb00146088005460200089
:105714000461880054202000046288005420200082
:1057240004638800446180000402d100346188006d
:10573400446280000402d100346288004463800023
:105744000402d100346388004461800094618800bd
:105754007400200024618800740020002462880002
:1057640074002000246388006b67a8006b87a8007e
:105774006ba7a800744380000480a1000490a000db
:1057840004a0a000744388000002eb0004608800b9
:105794000080fa00000006000000fa000403200064
:1057a400240888000002eb0004088800141120007b
:1057b400140888000442800004c0a00004d0a000a3
:1057c40004e0a100044288000080fa000000060002
:1057d4000000fa0004032000840888000002eb00a3
:1057e40034088800141120006408880014428000e2
:1057f40004c0a00004d0a00004e0a100144288006a
:105804000080fa00000006000000fa0004032000f3
:10581400940888000002eb00540888000082eb0022
:10582400740888000108a900244280000400a00034
:105834000410a1000420a100244288000080fa0082
:10584400000006000000fa0004032000e4098800b8
:105854000002eb00a4098800e4aa2000c40988001f
:105864000688a9002688a8003de1a800d44280004b
:105874000400a0000410a1000420a100d442880068
:105884000080fa00000006000200fa00000f780011
:105894001e027800040078000100200002002000ad
:1058a4000300200004d82100c54220006033b80062
:1058b4008df107000203be000002be000400be001a
:1058c4000601be0004242400f50020006033b80063
:1058d40014f107000203be000002be000402be0071
:1058e4000400be005d0007000080fa00000006000e
:1058f4000200fa00000f78001e027800040078000d
:1059040001002000020020000300200004d8210030
:10591400c54220006033b80073f107000203be00e3
:105924000002be000400be000601be00843e20004a
:10593400050020006033b800faf007000203be003f
:105944000002be000402be000400be0043000700c3
:105954000080fa00000006000000fa001400200095
:10596400040a88000002eb00140a88000442800044
:105974000440a1000450a0000460a0000442880078
:105984000028a90014002000440a88000002eb004b
:10599400540a8800144280000440a1000450a0006e
:1059a4000460a0001442880000a8a900140020008c
:1059b400840a88000002eb00940a88009442800064
:1059c4000440a1000450a0000460a0009442880098
:1059d40004a8a9000080fa00000006000200fa00f2
:1059e4005aeb070000027800040f78001e027800ca
:1059f400e10f4200130032001e0278000400780018
:105a04007dec0700442f21001442780061426200bb
:105a1400e04f5200070032002068a90020e8a900e6
:105a24002108a90005e1a90011e1a90013e1a900d9
:105a3400040037006dfc07000bc8a9002bc8a800a0
:105a440001eca8000080fa00000006000000fa0043
:0c5a540001eca9000080fa000000060030
:020000040000fa
:105a6000f03fb1000180b10006003500ee030900ef
:105a700000000000403fb1000180b100fbff3d008d
:105a80001000b000203fb000020035000080090087
:085a9000000000000000060008
:020000040000fa
:020000040002f8
:04abe000deff000094
:020000040000fa
:020000040002f8
:04abe400f7ff000077
:020000040000fa
:020000040002f8
:04abe800eaff000080
:020000040000fa
:020000040002f8
:04abec007dff0000e9
:020000040000fa
:020000040002f8
:04abf00038ff00002a
:020000040000fa
:020000040002f8
:04abf400cfff00008f
:00000001FF
